:03000000020006F5
:03005F0002000399
:03000300020532C1
:1000620085821A85831B7CDD7D26E4F518F51979D6
:1000720000B90E004003020126E51B339200400442
:100082007800800278FF881C89F005F0A818E5192D
:10009200FF3392D28008A2D2EF13FFE813F8D5F013
:1000A200F5E51CFE3395E0FBEE6200EB6207E8C368
:1000B2009EF8EF9BFFECC398F516ED9FF51789F0BC
:1000C20005F0AA04AF05ED3392D28008A2D2EF1355
:1000D200FFEA13FAD5F0F5EE6202EB6207EAC39E7D
:1000E200FAEF9BFFEA2518F518EF3519F519E975AE
:1000F200F002A42457F582740835F0F583E493FAEC
:10010200A3E493FFEE6202EB6207EAC39EFEEF9B5B
:10011200FBE51AC39EF51AE51B9BF51BAC16AD1742
:1001220009020073AB13AE14AF15EDCC25E0CC334E
:10013200FD8B828E838FF0EC1207D7A3ED1207D7C7
:10014200AD10AE11AF12E5182518FBE51933FC8D81
:10015200828E838FF0EB1207D7A3EC0207D77508C4
:100162008175090090040012063E750881750980A8
:1001720090040012063E90040F12066BAE82AF830B
:10018200E4FDFCEE2EFEEF33FFED33FDEC33FCEE2F
:100192002EFEEF33FFED33FDEC33FC90040EC0076F
:1001A200C006C005C00412066BAA82AB83D004D07D
:1001B20005D006D0078A008B01E4FAFBE82EFEE99F
:1001C2003FFFEA3DFDEB3C8E828F838DF022750866
:1001D2008175092090040012063E7508817509A0F8
:1001E20090040012063E90040E02066B85820B8577
:1001F200830C750AF090020C1206F3750A55E4F5A9
:100202000BF50C9002001206F3750A55750B017579
:100212000C009002001206F3750AF085230B852468
:100222000C90020C1206F3750A66E4F50BF50C90BD
:1002320002001206F3750A66750B01750C00900236
:10024200000206F3750AEDE4F50BF50C90040012BA
:1002520006F3E4F531F532F5337534807A797B9B18
:10026200752587752664F52BF52CF529752A0475F5
:10027200102D75110075124075132F751400751528
:10028200408A828B83C003C002120062D002D00374
:100292008A278B28C3E5259527E52664808528F0E3
:1002A20063F08095F05003020388852F2385302464
:1002B200852D82852E831201EEE5292527F582E51B
:1002C2002A3528F58375102D7511007512407513A6
:1002D2002F751400751540120062E4F535F536F5F8
:1002E20037F538753908F53A120160AC82AD83AE44
:1002F200F0FFEC2535F535ED3536F536EE3537F5CB
:1003020037EF3538F538E53924FFFEE53A34FFFF9B
:100312008E398F3AEE4F70D0E536C423C535C423EB
:10032200541F6535C535541FC5356535C535F53698
:10033200E537C42354E04536F536E538C423C537DE
:10034200C423541F6537C537541FC5376537C537B2
:10035200F538C3E5359531E5369532E5379533E520
:1003620038953450128535318536328537338538A4
:100372003485272B85282CE5292527F527E52A35DD
:1003820028F528020296E5292529FEE52A33FFE50C
:100392002BC39EFAE52C9FFBE52C30E70EC3E49AB3
:1003A20074808BF063F08095F0400BC3EA9479EB94
:1003B2006480941B50047A797B9BE5292529FEE50C
:1003C2002A33FFEE252BF525EF352CF526C3E495D0
:1003D2002B7480852CF063F08095F05005E5262083
:1003E200E70FC374879A74E48BF063F08095F05042
:1003F2000675258775266475100475110085298296
:10040200852A83C003C00212081B85822985832A9C
:10041200D002D003C3741095297480852AF063F04A
:100422008095F05003020271751002751100852B40
:1004320082852C8312081B85822B85832C1201D086
:10044200AE82AF83C374FF9E74818FF063F0809598
:10045200F0502AC3E4952B7480852CF063F08095CC
:10046200F0500EE52B2479F52BE52C349BF52C80EE
:100472000C7487252BF52B7464352CF52C750AED3D
:10048200E4F50BF50C9004001206F37523007524B5
:1004920080907FFF1201EE852B82852C83227C00C7
:1004A2007D007E007F00750AEDE4F50BF50C9004EB
:1004B20000C007C006C005C0041206F3D004D00570
:1004C200D006D007753B40753C00C007C006C0058A
:1004D200C004120160A882A983AAF0FBD004D0054F
:1004E200D006D007E82CFCE93DFDEA3EFEEB3FFFDB
:1004F200E53B24FFFAE53C34FFFB8A3B8B3CEA4BAD
:1005020070C8EDA2E7CC33CC33A2E7CC33CC33CCEA
:100512005403FDEE2E25E04DFDEFA2E7CE33CE33A0
:10052200A2E7CE33CE33CE54038C828D838EF0225B
:100532007F007E007D008FA27591FF75A1078FA9B4
:10054200C2A0D2A178FE7631759080858022858006
:1005520021E522B5210280F6E521F522700575908C
:100562008080EB7401B5212A7590FF1204A0858268
:100572003D85833E85F03FF540853D4375440075DA
:100582004500754600AD43AE3EAC3F8C077590808A
:1005920080BC7402B5211D7590FFC007120246850A
:1005A2008241858342D007AA418A05AC428C0675F6
:1005B2009080809A7410B521058D900205507411B7
:1005C200B521058E900205507412B521058F900257
:1005D20005507413B5210675900002055074FFB5DD
:1005E2002102800302055078FE748046F5900205D0
:0105F20050B8
:100857004332AC1DAD0FF507FE03FF01FF007F001C
:0C0867003F001F000F000700030001000D
:1005F300AE82AF83900001E4F07480A3F07D10C25B
:10060300A0900001E0FBA3E0FCEB5EF9EC5F492462
:10061300FF92A2ECC313CB13CBFC900001EBF0ECE5
:10062300A3F0C007C006C0051207D5D2A01207D594
:10063300D005D006D007C2A0DDC522AE82AF83436A
:100643000780C2A0C2A1C007C0061207D5D006D03A
:10065300078E828F831205F385088285098312052D
:10066300F3D2A1D2A20207D5AE82AF83C2A0C2A1A8
:1006730053077FC007C0061207D5D006D0078E8266
:100683008F831205F3D2A27E007F007C007D807BE6
:1006930010C007C006C005C004C0031207D5D003AD
:1006A300D004D005D006D007D2A030A306EC420672
:1006B300ED4207EDC313CC13CCFDC007C006C00544
:1006C300C004C0031207D5D003D004D005D006D090
:1006D30007C2A0EB14FAFB70B8C007C0061207D517
:1006E300D2A1D2A21207D5D006D0078E828F832241
:1006F300AE82AF83C007C00612066B85820D858369
:100703000ED006D007E50AC4540FFB7A00740F55C8
:100713000AF9F87D00EBC398FBEA9DFA0BBB0001D5
:100723000A8BF005F07BFF7AFF8006EB2BFBEA33A5
:10073300FAD5F0F7EBF4FBEAF4FA89F005F080065A
:10074300EB2BFBEA33FAD5F0F7EBF4FCEAF4FDE527
:100753000D5204E50E520589F005F0A80BA90C8093
:1007630006E828F8E933F9D5F0F7E85203E952022D
:10077300EB4CF508EA4DF5098E828F8302063E1293
:10078300066BAE82AF83E50FC4540FFD7C000DBD35
:1007930000010C8DF005F07DFF7CFF8006ED2DFD43
:1007A300EC33FCD5F0F7EDF4FDECF4FCED5206EC84
:1007B3005207740F550FFD8DF005F08506828507EE
:1007C30083800BC3E58313F583E58213F582D5F0AC
:0407D300F2220022EC
:06003500E478FFF6D8FD9F
:100013007900E94400601B7A00900873780375A0A7
:1000230000E493F2A308B8000205A0D9F4DAF2754C
:02003300A0FF2C
:1007D70020F71130F6138883A88220F509F6A8833D
:0B07E7007583002280FEF280F5F022F6
:10003B007800E84400600A790175A000E4F309D860
:10004B00FC7802E84400600C7901900001E4F0A315
:04005B00D8FCD9FAFA
:1007F2007A10E4FBFCE58225E0F582E58333F5839C
:10080200EB33FBEC33FCEB9510F5F0EC9511400665
:09081200FCABF0438201DADD22A7
:0D000600758146120853E582600302000375
:10081B00C2D5E58330E70DD2D5E4C39582F582E4EA
:10082B009583F583E51130E70DB2D5E4C39510F54B
:10083B0010E49511F5111207F230D50BE4C3958234
:0C084B00F582E49583F58322758200227B
:00000001FF
